{
  "_format": "hh3-artifact-1",
  "contractName": "FruitMarket",
  "sourceName": "contracts/FruitMarket.sol",
  "abi": [
    {
      "inputs": [],
      "name": "InvalidInitialization",
      "type": "error"
    },
    {
      "inputs": [],
      "name": "NotInitializing",
      "type": "error"
    },
    {
      "anonymous": false,
      "inputs": [
        {
          "indexed": false,
          "internalType": "uint64",
          "name": "version",
          "type": "uint64"
        }
      ],
      "name": "Initialized",
      "type": "event"
    },
    {
      "anonymous": false,
      "inputs": [
        {
          "indexed": false,
          "internalType": "address",
          "name": "sender",
          "type": "address"
        },
        {
          "indexed": false,
          "internalType": "string",
          "name": "fruitName",
          "type": "string"
        },
        {
          "indexed": false,
          "internalType": "uint8",
          "name": "quantity",
          "type": "uint8"
        }
      ],
      "name": "fruitBought",
      "type": "event"
    },
    {
      "anonymous": false,
      "inputs": [
        {
          "components": [
            {
              "internalType": "string",
              "name": "name",
              "type": "string"
            },
            {
              "internalType": "uint8",
              "name": "price",
              "type": "uint8"
            },
            {
              "internalType": "uint8",
              "name": "quantity",
              "type": "uint8"
            }
          ],
          "indexed": false,
          "internalType": "struct Fruit",
          "name": "fruit",
          "type": "tuple"
        }
      ],
      "name": "update",
      "type": "event"
    },
    {
      "inputs": [
        {
          "internalType": "string",
          "name": "fruitName",
          "type": "string"
        },
        {
          "internalType": "uint8",
          "name": "quantity",
          "type": "uint8"
        }
      ],
      "name": "buyFruit",
      "outputs": [],
      "stateMutability": "payable",
      "type": "function"
    },
    {
      "inputs": [],
      "name": "getAvailableFruitsList",
      "outputs": [
        {
          "internalType": "string[]",
          "name": "",
          "type": "string[]"
        }
      ],
      "stateMutability": "view",
      "type": "function"
    },
    {
      "inputs": [
        {
          "internalType": "string",
          "name": "fruitName",
          "type": "string"
        }
      ],
      "name": "getFruit",
      "outputs": [
        {
          "components": [
            {
              "internalType": "string",
              "name": "name",
              "type": "string"
            },
            {
              "internalType": "uint8",
              "name": "price",
              "type": "uint8"
            },
            {
              "internalType": "uint8",
              "name": "quantity",
              "type": "uint8"
            }
          ],
          "internalType": "struct Fruit",
          "name": "",
          "type": "tuple"
        }
      ],
      "stateMutability": "view",
      "type": "function"
    },
    {
      "inputs": [
        {
          "internalType": "address",
          "name": "_owner",
          "type": "address"
        }
      ],
      "name": "initialize",
      "outputs": [],
      "stateMutability": "nonpayable",
      "type": "function"
    },
    {
      "inputs": [],
      "name": "locked",
      "outputs": [
        {
          "internalType": "bool",
          "name": "",
          "type": "bool"
        }
      ],
      "stateMutability": "view",
      "type": "function"
    },
    {
      "inputs": [],
      "name": "owner",
      "outputs": [
        {
          "internalType": "address payable",
          "name": "",
          "type": "address"
        }
      ],
      "stateMutability": "view",
      "type": "function"
    },
    {
      "inputs": [
        {
          "internalType": "uint256",
          "name": "_amount",
          "type": "uint256"
        }
      ],
      "name": "pay",
      "outputs": [],
      "stateMutability": "nonpayable",
      "type": "function"
    },
    {
      "inputs": [
        {
          "internalType": "string",
          "name": "name",
          "type": "string"
        }
      ],
      "name": "removeFruit",
      "outputs": [],
      "stateMutability": "nonpayable",
      "type": "function"
    },
    {
      "inputs": [
        {
          "internalType": "string",
          "name": "name",
          "type": "string"
        },
        {
          "internalType": "uint8",
          "name": "price",
          "type": "uint8"
        },
        {
          "internalType": "uint8",
          "name": "quantity",
          "type": "uint8"
        }
      ],
      "name": "updateCatalog",
      "outputs": [],
      "stateMutability": "nonpayable",
      "type": "function"
    }
  ],
  "bytecode": "0x6080604052348015600e575f5ffd5b506111ce8061001c5f395ff3fe608060405260043610610084575f3560e01c8063c290d69111610057578063c290d69114610117578063c379ff5014610136578063c4d66de814610157578063c8ba220814610176578063cf309012146101a2575f5ffd5b80630437f91f146100885780638da5cb5b1461009d5780639385f95b146100d9578063b11a8663146100f8575b5f5ffd5b61009b610096366004610c82565b6101d2565b005b3480156100a8575f5ffd5b506002546100bc906001600160a01b031681565b6040516001600160a01b0390911681526020015b60405180910390f35b3480156100e4575f5ffd5b5061009b6100f3366004610cd2565b610406565b348015610103575f5ffd5b5061009b610112366004610d33565b610681565b348015610122575f5ffd5b5061009b610131366004610d72565b610744565b348015610141575f5ffd5b5061014a6107df565b6040516100d09190610db7565b348015610162575f5ffd5b5061009b610171366004610e1a565b6108b3565b348015610181575f5ffd5b50610195610190366004610d33565b610aad565b6040516100d09190610e47565b3480156101ad575f5ffd5b506002546101c290600160a01b900460ff1681565b60405190151581526020016100d0565b5f5f84846040516101e4929190610e88565b908152604051908190036020019020600181015490915060ff610100909104165f036102685760405162461bcd60e51b815260206004820152602860248201527f6275794672756974203a20667275697420726571756573746564206e6f7420616044820152677661696c61626c6560c01b60648201526084015b60405180910390fd5b600181015460ff8084166101009092041610156103005760405162461bcd60e51b815260206004820152604a60248201527f6275794672756974203a205468657265206973206e6f7420656e6f756768206660448201527f727569742c2063616e6e6f74206769766520796f75206173206d616e79206173606482015269081c995c5d595cdd195960b21b608482015260a40161025f565b60018101545f906103149060ff1684610eab565b60ff169050803410156103845760405162461bcd60e51b815260206004820152603260248201527f6275794672756974203a20696e73756666696369656e742066756e647320746f604482015271206275792074686973207175616e7469747960701b606482015260840161025f565b61038d81610744565b600182810180548592906103aa908490610100900460ff16610ece565b92506101000a81548160ff021916908360ff1602179055507fc3e43f530f60320e613fed8164f7a02992964d2ef16d90fc5ad692b6b9eebf61338686866040516103f79493929190610ee7565b60405180910390a15050505050565b6002546001600160a01b031633146104305760405162461bcd60e51b815260040161025f90610f32565b61047c84848080601f0160208091040260200160405190810160405280939291908181526020018383808284375f92018290525060408051602081019091529081529250610ba8915050565b156104d75760405162461bcd60e51b815260206004820152602560248201527f757064617465436174616c6f673a20667275697473206d7573742068617665206044820152646e616d657360d81b606482015260840161025f565b5f8160ff16116105335760405162461bcd60e51b815260206004820152602160248201527f757064617465436174616c6f673a2063616e6e6f7420616464203020667275696044820152601d60fa1b606482015260840161025f565b5f8484604051610544929190610e88565b9081526040519081900360200190206001015460ff610100909104165f036105a3576001805480820182555f919091527fb10e2d527612073b26eecdfd717e6a320cf44b4afac2b0732d9fcbe2b7fa0cf6016105a184868361100d565b505b6040805160806020601f87018190040282018101909252606081018581525f9282919088908890819085018382808284375f92018290525093855250505060ff80871660208401528516604092830152905191925082916106079088908890610e88565b9081526040519081900360200190208151819061062490826110c7565b5060208201516001909101805460409384015160ff9081166101000261ffff19909216931692909217919091179055517f84cd380e45c2e12dd217628144d89aa43486bf2fbfde69b797d635e4875b3d67906103f7908390610e47565b6002546001600160a01b031633146106ab5760405162461bcd60e51b815260040161025f90610f32565b5f5f83836040516106bd929190610e88565b908152604051908190036020019020600181015490915060ff610100909104166107345760405162461bcd60e51b815260206004820152602260248201527f72656d6f76654672756974203a206672756974206e6f7420696e20636174616c6044820152616f6760f01b606482015260840161025f565b600101805461ff00191690555050565b6002546040515f916001600160a01b03169083908381818185875af1925050503d805f811461078e576040519150601f19603f3d011682016040523d82523d5f602084013e610793565b606091505b50509050806107db5760405162461bcd60e51b81526020600482015260146024820152732330b4b632b2103a379039b2b7321022ba3432b960611b604482015260640161025f565b5050565b60606001805480602002602001604051908101604052809291908181526020015f905b828210156108aa578382905f5260205f2001805461081f90610f89565b80601f016020809104026020016040519081016040528092919081815260200182805461084b90610f89565b80156108965780601f1061086d57610100808354040283529160200191610896565b820191905f5260205f20905b81548152906001019060200180831161087957829003601f168201915b505050505081526020019060010190610802565b50505050905090565b5f6108bc610c00565b805490915060ff600160401b820416159067ffffffffffffffff165f811580156108e35750825b90505f8267ffffffffffffffff1660011480156108ff5750303b155b90508115801561090d575080155b1561092b5760405163f92ee8a960e01b815260040160405180910390fd5b845467ffffffffffffffff19166001178555831561095557845460ff60401b1916600160401b1785555b600280546001600160a01b0319166001600160a01b0388161790556001805480820182555f919091526040805180820190915260048152631d195cdd60e21b60208201527fb10e2d527612073b26eecdfd717e6a320cf44b4afac2b0732d9fcbe2b7fa0cf6909101906109c890826110c7565b506040805160a081018252600460608201908152631d195cdd60e21b60808301528152600a6020820152600581830152905181905f90610a1290631d195cdd60e21b815260040190565b90815260405190819003602001902081518190610a2f90826110c7565b5060208201516001909101805460409093015160ff9081166101000261ffff19909416921691909117919091179055508315610aa557845460ff60401b19168555604051600181527fc7f505b2f371ae2175ee4913f4499e1f2633a7b5936321eed1cdaeb6115181d29060200160405180910390a15b505050505050565b604080516060808201835281525f60208201819052918101919091525f8383604051610ada929190610e88565b90815260200160405180910390206040518060600160405290815f82018054610b0290610f89565b80601f0160208091040260200160405190810160405280929190818152602001828054610b2e90610f89565b8015610b795780601f10610b5057610100808354040283529160200191610b79565b820191905f5260205f20905b815481529060010190602001808311610b5c57829003601f168201915b50505091835250506001919091015460ff80821660208401526101009091041660409091015290505b92915050565b5f81604051602001610bba9190611182565b6040516020818303038152906040528051906020012083604051602001610be19190611182565b6040516020818303038152906040528051906020012014905092915050565b5f807ff0c57e16840df040f15088dc2f81fe391c3923bec73e23a9662efc9c229c6a00610ba2565b5f5f83601f840112610c38575f5ffd5b50813567ffffffffffffffff811115610c4f575f5ffd5b602083019150836020828501011115610c66575f5ffd5b9250929050565b803560ff81168114610c7d575f5ffd5b919050565b5f5f5f60408486031215610c94575f5ffd5b833567ffffffffffffffff811115610caa575f5ffd5b610cb686828701610c28565b9094509250610cc9905060208501610c6d565b90509250925092565b5f5f5f5f60608587031215610ce5575f5ffd5b843567ffffffffffffffff811115610cfb575f5ffd5b610d0787828801610c28565b9095509350610d1a905060208601610c6d565b9150610d2860408601610c6d565b905092959194509250565b5f5f60208385031215610d44575f5ffd5b823567ffffffffffffffff811115610d5a575f5ffd5b610d6685828601610c28565b90969095509350505050565b5f60208284031215610d82575f5ffd5b5035919050565b5f81518084528060208401602086015e5f602082860101526020601f19601f83011685010191505092915050565b5f602082016020835280845180835260408501915060408160051b8601019250602086015f5b82811015610e0e57603f19878603018452610df9858351610d89565b94506020938401939190910190600101610ddd565b50929695505050505050565b5f60208284031215610e2a575f5ffd5b81356001600160a01b0381168114610e40575f5ffd5b9392505050565b602081525f825160606020840152610e626080840182610d89565b905060ff602085015116604084015260ff60408501511660608401528091505092915050565b818382375f9101908152919050565b634e487b7160e01b5f52601160045260245ffd5b60ff8181168382160290811690818114610ec757610ec7610e97565b5092915050565b60ff8281168282160390811115610ba257610ba2610e97565b6001600160a01b03851681526060602082018190528101839052828460808301375f608084830101525f6080601f19601f860116830101905060ff8316604083015295945050505050565b60208082526023908201527f4f6e6c79206f776e65722063616e2061636365737320746869732066756e637460408201526234b7b760e91b606082015260800190565b634e487b7160e01b5f52604160045260245ffd5b600181811c90821680610f9d57607f821691505b602082108103610fbb57634e487b7160e01b5f52602260045260245ffd5b50919050565b601f82111561100857805f5260205f20601f840160051c81016020851015610fe65750805b601f840160051c820191505b81811015611005575f8155600101610ff2565b50505b505050565b67ffffffffffffffff83111561102557611025610f75565b611039836110338354610f89565b83610fc1565b5f601f84116001811461106a575f85156110535750838201355b5f19600387901b1c1916600186901b178355611005565b5f83815260208120601f198716915b828110156110995786850135825560209485019460019092019101611079565b50868210156110b5575f1960f88860031b161c19848701351681555b505060018560011b0183555050505050565b815167ffffffffffffffff8111156110e1576110e1610f75565b6110f5816110ef8454610f89565b84610fc1565b6020601f821160018114611127575f83156111105750848201515b5f19600385901b1c1916600184901b178455611005565b5f84815260208120601f198516915b828110156111565787850151825560209485019460019092019101611136565b508482101561117357868401515f19600387901b60f8161c191681555b50505050600190811b01905550565b5f82518060208501845e5f92019182525091905056fea2646970667358221220056eee0c1a2e62dea990e23bf11245f81542bde608d714313ec557f148e2d22664736f6c634300081c0033",
  "linkReferences": {},
  "deployedLinkReferences": {},
  "immutableReferences": {},
  "inputSourceName": "project/contracts/FruitMarket.sol",
  "buildInfoId": "solc-0_8_28-5d84f6c32eb79d461cd7321cc24906bd6d3a039c"
}