{
  "_format": "hh3-artifact-1",
  "contractName": "FruitMarket",
  "sourceName": "contracts/FruitMarket.sol",
  "abi": [
    {
      "inputs": [],
      "stateMutability": "payable",
      "type": "constructor"
    },
    {
      "anonymous": false,
      "inputs": [
        {
          "indexed": false,
          "internalType": "address",
          "name": "sender",
          "type": "address"
        },
        {
          "indexed": false,
          "internalType": "string",
          "name": "fruitName",
          "type": "string"
        },
        {
          "indexed": false,
          "internalType": "uint8",
          "name": "quantity",
          "type": "uint8"
        }
      ],
      "name": "fruitBought",
      "type": "event"
    },
    {
      "anonymous": false,
      "inputs": [
        {
          "components": [
            {
              "internalType": "string",
              "name": "name",
              "type": "string"
            },
            {
              "internalType": "uint8",
              "name": "price",
              "type": "uint8"
            },
            {
              "internalType": "uint8",
              "name": "quantity",
              "type": "uint8"
            }
          ],
          "indexed": false,
          "internalType": "struct Fruit",
          "name": "fruit",
          "type": "tuple"
        }
      ],
      "name": "update",
      "type": "event"
    },
    {
      "inputs": [
        {
          "internalType": "string",
          "name": "fruitName",
          "type": "string"
        },
        {
          "internalType": "uint8",
          "name": "quantity",
          "type": "uint8"
        }
      ],
      "name": "buyFruit",
      "outputs": [],
      "stateMutability": "payable",
      "type": "function"
    },
    {
      "inputs": [],
      "name": "getAvailableFruitsList",
      "outputs": [
        {
          "internalType": "string[]",
          "name": "",
          "type": "string[]"
        }
      ],
      "stateMutability": "view",
      "type": "function"
    },
    {
      "inputs": [
        {
          "internalType": "string",
          "name": "fruitName",
          "type": "string"
        }
      ],
      "name": "getFruit",
      "outputs": [
        {
          "components": [
            {
              "internalType": "string",
              "name": "name",
              "type": "string"
            },
            {
              "internalType": "uint8",
              "name": "price",
              "type": "uint8"
            },
            {
              "internalType": "uint8",
              "name": "quantity",
              "type": "uint8"
            }
          ],
          "internalType": "struct Fruit",
          "name": "",
          "type": "tuple"
        }
      ],
      "stateMutability": "view",
      "type": "function"
    },
    {
      "inputs": [],
      "name": "locked",
      "outputs": [
        {
          "internalType": "bool",
          "name": "",
          "type": "bool"
        }
      ],
      "stateMutability": "view",
      "type": "function"
    },
    {
      "inputs": [],
      "name": "owner",
      "outputs": [
        {
          "internalType": "address payable",
          "name": "",
          "type": "address"
        }
      ],
      "stateMutability": "view",
      "type": "function"
    },
    {
      "inputs": [
        {
          "internalType": "uint256",
          "name": "_amount",
          "type": "uint256"
        }
      ],
      "name": "pay",
      "outputs": [],
      "stateMutability": "nonpayable",
      "type": "function"
    },
    {
      "inputs": [
        {
          "internalType": "string",
          "name": "name",
          "type": "string"
        }
      ],
      "name": "removeFruit",
      "outputs": [],
      "stateMutability": "nonpayable",
      "type": "function"
    },
    {
      "inputs": [
        {
          "internalType": "string",
          "name": "name",
          "type": "string"
        },
        {
          "internalType": "uint8",
          "name": "price",
          "type": "uint8"
        },
        {
          "internalType": "uint8",
          "name": "quantity",
          "type": "uint8"
        }
      ],
      "name": "updateCatalog",
      "outputs": [],
      "stateMutability": "nonpayable",
      "type": "function"
    }
  ],
  "bytecode": "0x6080604052600280546001600160a01b03191633179055610f55806100235f395ff3fe608060405260043610610079575f3560e01c8063c290d6911161004c578063c290d6911461010c578063c379ff501461012b578063c8ba22081461014c578063cf30901214610178575f5ffd5b80630437f91f1461007d5780638da5cb5b146100925780639385f95b146100ce578063b11a8663146100ed575b5f5ffd5b61009061008b366004610a36565b6101a8565b005b34801561009d575f5ffd5b506002546100b1906001600160a01b031681565b6040516001600160a01b0390911681526020015b60405180910390f35b3480156100d9575f5ffd5b506100906100e8366004610a86565b6103dc565b3480156100f8575f5ffd5b50610090610107366004610ae7565b610657565b348015610117575f5ffd5b50610090610126366004610b26565b61071a565b348015610136575f5ffd5b5061013f6107b5565b6040516100c59190610b6b565b348015610157575f5ffd5b5061016b610166366004610ae7565b610889565b6040516100c59190610bce565b348015610183575f5ffd5b5060025461019890600160a01b900460ff1681565b60405190151581526020016100c5565b5f5f84846040516101ba929190610c0f565b908152604051908190036020019020600181015490915060ff610100909104165f0361023e5760405162461bcd60e51b815260206004820152602860248201527f6275794672756974203a20667275697420726571756573746564206e6f7420616044820152677661696c61626c6560c01b60648201526084015b60405180910390fd5b600181015460ff8084166101009092041610156102d65760405162461bcd60e51b815260206004820152604a60248201527f6275794672756974203a205468657265206973206e6f7420656e6f756768206660448201527f727569742c2063616e6e6f74206769766520796f75206173206d616e79206173606482015269081c995c5d595cdd195960b21b608482015260a401610235565b60018101545f906102ea9060ff1684610c32565b60ff1690508034101561035a5760405162461bcd60e51b815260206004820152603260248201527f6275794672756974203a20696e73756666696369656e742066756e647320746f604482015271206275792074686973207175616e7469747960701b6064820152608401610235565b6103638161071a565b60018281018054859290610380908490610100900460ff16610c55565b92506101000a81548160ff021916908360ff1602179055507fc3e43f530f60320e613fed8164f7a02992964d2ef16d90fc5ad692b6b9eebf61338686866040516103cd9493929190610c6e565b60405180910390a15050505050565b6002546001600160a01b031633146104065760405162461bcd60e51b815260040161023590610cb9565b61045284848080601f0160208091040260200160405190810160405280939291908181526020018383808284375f92018290525060408051602081019091529081529250610984915050565b156104ad5760405162461bcd60e51b815260206004820152602560248201527f757064617465436174616c6f673a20667275697473206d7573742068617665206044820152646e616d657360d81b6064820152608401610235565b5f8160ff16116105095760405162461bcd60e51b815260206004820152602160248201527f757064617465436174616c6f673a2063616e6e6f7420616464203020667275696044820152601d60fa1b6064820152608401610235565b5f848460405161051a929190610c0f565b9081526040519081900360200190206001015460ff610100909104165f03610579576001805480820182555f919091527fb10e2d527612073b26eecdfd717e6a320cf44b4afac2b0732d9fcbe2b7fa0cf601610577848683610d94565b505b6040805160806020601f87018190040282018101909252606081018581525f9282919088908890819085018382808284375f92018290525093855250505060ff80871660208401528516604092830152905191925082916105dd9088908890610c0f565b908152604051908190036020019020815181906105fa9082610e4e565b5060208201516001909101805460409384015160ff9081166101000261ffff19909216931692909217919091179055517f84cd380e45c2e12dd217628144d89aa43486bf2fbfde69b797d635e4875b3d67906103cd908390610bce565b6002546001600160a01b031633146106815760405162461bcd60e51b815260040161023590610cb9565b5f5f8383604051610693929190610c0f565b908152604051908190036020019020600181015490915060ff6101009091041661070a5760405162461bcd60e51b815260206004820152602260248201527f72656d6f76654672756974203a206672756974206e6f7420696e20636174616c6044820152616f6760f01b6064820152608401610235565b600101805461ff00191690555050565b6002546040515f916001600160a01b03169083908381818185875af1925050503d805f8114610764576040519150601f19603f3d011682016040523d82523d5f602084013e610769565b606091505b50509050806107b15760405162461bcd60e51b81526020600482015260146024820152732330b4b632b2103a379039b2b7321022ba3432b960611b6044820152606401610235565b5050565b60606001805480602002602001604051908101604052809291908181526020015f905b82821015610880578382905f5260205f200180546107f590610d10565b80601f016020809104026020016040519081016040528092919081815260200182805461082190610d10565b801561086c5780601f106108435761010080835404028352916020019161086c565b820191905f5260205f20905b81548152906001019060200180831161084f57829003601f168201915b5050505050815260200190600101906107d8565b50505050905090565b604080516060808201835281525f60208201819052918101919091525f83836040516108b6929190610c0f565b90815260200160405180910390206040518060600160405290815f820180546108de90610d10565b80601f016020809104026020016040519081016040528092919081815260200182805461090a90610d10565b80156109555780601f1061092c57610100808354040283529160200191610955565b820191905f5260205f20905b81548152906001019060200180831161093857829003601f168201915b50505091835250506001919091015460ff80821660208401526101009091041660409091015290505b92915050565b5f816040516020016109969190610f09565b60405160208183030381529060405280519060200120836040516020016109bd9190610f09565b6040516020818303038152906040528051906020012014905092915050565b5f5f83601f8401126109ec575f5ffd5b50813567ffffffffffffffff811115610a03575f5ffd5b602083019150836020828501011115610a1a575f5ffd5b9250929050565b803560ff81168114610a31575f5ffd5b919050565b5f5f5f60408486031215610a48575f5ffd5b833567ffffffffffffffff811115610a5e575f5ffd5b610a6a868287016109dc565b9094509250610a7d905060208501610a21565b90509250925092565b5f5f5f5f60608587031215610a99575f5ffd5b843567ffffffffffffffff811115610aaf575f5ffd5b610abb878288016109dc565b9095509350610ace905060208601610a21565b9150610adc60408601610a21565b905092959194509250565b5f5f60208385031215610af8575f5ffd5b823567ffffffffffffffff811115610b0e575f5ffd5b610b1a858286016109dc565b90969095509350505050565b5f60208284031215610b36575f5ffd5b5035919050565b5f81518084528060208401602086015e5f602082860101526020601f19601f83011685010191505092915050565b5f602082016020835280845180835260408501915060408160051b8601019250602086015f5b82811015610bc257603f19878603018452610bad858351610b3d565b94506020938401939190910190600101610b91565b50929695505050505050565b602081525f825160606020840152610be96080840182610b3d565b905060ff602085015116604084015260ff60408501511660608401528091505092915050565b818382375f9101908152919050565b634e487b7160e01b5f52601160045260245ffd5b60ff8181168382160290811690818114610c4e57610c4e610c1e565b5092915050565b60ff828116828216039081111561097e5761097e610c1e565b6001600160a01b03851681526060602082018190528101839052828460808301375f608084830101525f6080601f19601f860116830101905060ff8316604083015295945050505050565b60208082526023908201527f4f6e6c79206f776e65722063616e2061636365737320746869732066756e637460408201526234b7b760e91b606082015260800190565b634e487b7160e01b5f52604160045260245ffd5b600181811c90821680610d2457607f821691505b602082108103610d4257634e487b7160e01b5f52602260045260245ffd5b50919050565b601f821115610d8f57805f5260205f20601f840160051c81016020851015610d6d5750805b601f840160051c820191505b81811015610d8c575f8155600101610d79565b50505b505050565b67ffffffffffffffff831115610dac57610dac610cfc565b610dc083610dba8354610d10565b83610d48565b5f601f841160018114610df1575f8515610dda5750838201355b5f19600387901b1c1916600186901b178355610d8c565b5f83815260208120601f198716915b82811015610e205786850135825560209485019460019092019101610e00565b5086821015610e3c575f1960f88860031b161c19848701351681555b505060018560011b0183555050505050565b815167ffffffffffffffff811115610e6857610e68610cfc565b610e7c81610e768454610d10565b84610d48565b6020601f821160018114610eae575f8315610e975750848201515b5f19600385901b1c1916600184901b178455610d8c565b5f84815260208120601f198516915b82811015610edd5787850151825560209485019460019092019101610ebd565b5084821015610efa57868401515f19600387901b60f8161c191681555b50505050600190811b01905550565b5f82518060208501845e5f92019182525091905056fea26469706673582212209e054372af989138a97627fa8996b66ebff5954800a3ec54be2c399b72bc185d64736f6c634300081c0033",
  "linkReferences": {},
  "deployedLinkReferences": {},
  "immutableReferences": {},
  "inputSourceName": "project/contracts/FruitMarket.sol",
  "buildInfoId": "solc-0_8_28-830f390158d9e931072f0b8531120353d8023508"
}