{
  "_format": "hh3-artifact-1",
  "contractName": "FruitMarket",
  "sourceName": "contracts/FruitMarket.sol",
  "abi": [
    {
      "inputs": [],
      "name": "InvalidInitialization",
      "type": "error"
    },
    {
      "inputs": [],
      "name": "NotInitializing",
      "type": "error"
    },
    {
      "anonymous": false,
      "inputs": [
        {
          "indexed": false,
          "internalType": "uint64",
          "name": "version",
          "type": "uint64"
        }
      ],
      "name": "Initialized",
      "type": "event"
    },
    {
      "anonymous": false,
      "inputs": [
        {
          "indexed": false,
          "internalType": "address",
          "name": "sender",
          "type": "address"
        },
        {
          "indexed": false,
          "internalType": "string",
          "name": "fruitName",
          "type": "string"
        },
        {
          "indexed": false,
          "internalType": "uint8",
          "name": "quantity",
          "type": "uint8"
        }
      ],
      "name": "fruitBought",
      "type": "event"
    },
    {
      "anonymous": false,
      "inputs": [
        {
          "components": [
            {
              "internalType": "string",
              "name": "name",
              "type": "string"
            },
            {
              "internalType": "uint8",
              "name": "price",
              "type": "uint8"
            },
            {
              "internalType": "uint8",
              "name": "quantity",
              "type": "uint8"
            }
          ],
          "indexed": false,
          "internalType": "struct Fruit",
          "name": "fruit",
          "type": "tuple"
        }
      ],
      "name": "update",
      "type": "event"
    },
    {
      "inputs": [
        {
          "internalType": "string",
          "name": "fruitName",
          "type": "string"
        },
        {
          "internalType": "uint8",
          "name": "quantity",
          "type": "uint8"
        }
      ],
      "name": "buyFruit",
      "outputs": [],
      "stateMutability": "payable",
      "type": "function"
    },
    {
      "inputs": [],
      "name": "getAvailableFruitsList",
      "outputs": [
        {
          "internalType": "string[]",
          "name": "",
          "type": "string[]"
        }
      ],
      "stateMutability": "view",
      "type": "function"
    },
    {
      "inputs": [
        {
          "internalType": "string",
          "name": "fruitName",
          "type": "string"
        }
      ],
      "name": "getFruit",
      "outputs": [
        {
          "components": [
            {
              "internalType": "string",
              "name": "name",
              "type": "string"
            },
            {
              "internalType": "uint8",
              "name": "price",
              "type": "uint8"
            },
            {
              "internalType": "uint8",
              "name": "quantity",
              "type": "uint8"
            }
          ],
          "internalType": "struct Fruit",
          "name": "",
          "type": "tuple"
        }
      ],
      "stateMutability": "view",
      "type": "function"
    },
    {
      "inputs": [
        {
          "internalType": "address",
          "name": "_owner",
          "type": "address"
        }
      ],
      "name": "initialize",
      "outputs": [],
      "stateMutability": "nonpayable",
      "type": "function"
    },
    {
      "inputs": [],
      "name": "locked",
      "outputs": [
        {
          "internalType": "bool",
          "name": "",
          "type": "bool"
        }
      ],
      "stateMutability": "view",
      "type": "function"
    },
    {
      "inputs": [],
      "name": "owner",
      "outputs": [
        {
          "internalType": "address payable",
          "name": "",
          "type": "address"
        }
      ],
      "stateMutability": "view",
      "type": "function"
    },
    {
      "inputs": [
        {
          "internalType": "uint256",
          "name": "_amount",
          "type": "uint256"
        }
      ],
      "name": "pay",
      "outputs": [],
      "stateMutability": "nonpayable",
      "type": "function"
    },
    {
      "inputs": [
        {
          "internalType": "string",
          "name": "name",
          "type": "string"
        }
      ],
      "name": "removeFruit",
      "outputs": [],
      "stateMutability": "nonpayable",
      "type": "function"
    },
    {
      "inputs": [
        {
          "internalType": "string",
          "name": "name",
          "type": "string"
        },
        {
          "internalType": "uint8",
          "name": "price",
          "type": "uint8"
        },
        {
          "internalType": "uint8",
          "name": "quantity",
          "type": "uint8"
        }
      ],
      "name": "updateCatalog",
      "outputs": [],
      "stateMutability": "nonpayable",
      "type": "function"
    }
  ],
  "bytecode": "0x6080604052348015600e575f5ffd5b50611cea8061001c5f395ff3fe608060405260043610610085575f3560e01c8063c290d69111610058578063c290d6911461011f578063c379ff5014610147578063c4d66de814610171578063c8ba220814610199578063cf309012146101d557610085565b80630437f91f146100895780638da5cb5b146100a55780639385f95b146100cf578063b11a8663146100f7575b5f5ffd5b6100a3600480360381019061009e9190610dd0565b6101ff565b005b3480156100b0575f5ffd5b506100b96103bb565b6040516100c69190610e6c565b60405180910390f35b3480156100da575f5ffd5b506100f560048036038101906100f09190610e85565b6103e0565b005b348015610102575f5ffd5b5061011d60048036038101906101189190610ef6565b6106e1565b005b34801561012a575f5ffd5b5061014560048036038101906101409190610f74565b61080a565b005b348015610152575f5ffd5b5061015b6108d7565b60405161016891906110ca565b60405180910390f35b34801561017c575f5ffd5b5061019760048036038101906101929190611125565b6109ab565b005b3480156101a4575f5ffd5b506101bf60048036038101906101ba9190610ef6565b610b63565b6040516101cc91906111ac565b60405180910390f35b3480156101e0575f5ffd5b506101e9610c65565b6040516101f691906111e6565b60405180910390f35b5f5f848460405161021192919061123b565b908152602001604051809103902090505f8160010160019054906101000a900460ff1660ff1603610277576040517f08c379a000000000000000000000000000000000000000000000000000000000815260040161026e906112d3565b60405180910390fd5b8160ff168160010160019054906101000a900460ff1660ff1610156102d1576040517f08c379a00000000000000000000000000000000000000000000000000000000081526004016102c890611387565b60405180910390fd5b5f816001015f9054906101000a900460ff16836102ee91906113d2565b60ff16905080341015610336576040517f08c379a000000000000000000000000000000000000000000000000000000000815260040161032d9061147e565b60405180910390fd5b61033f8161080a565b828260010160018282829054906101000a900460ff1661035f919061149c565b92506101000a81548160ff021916908360ff1602179055507fc3e43f530f60320e613fed8164f7a02992964d2ef16d90fc5ad692b6b9eebf61338686866040516103ac949392919061151a565b60405180910390a15050505050565b60025f9054906101000a900473ffffffffffffffffffffffffffffffffffffffff1681565b60025f9054906101000a900473ffffffffffffffffffffffffffffffffffffffff1673ffffffffffffffffffffffffffffffffffffffff163373ffffffffffffffffffffffffffffffffffffffff161461046f576040517f08c379a0000000000000000000000000000000000000000000000000000000008152600401610466906115c8565b60405180910390fd5b6104ca84848080601f0160208091040260200160405190810160405280939291908181526020018383808284375f81840152601f19601f8201169050808301925050505050505060405180602001604052805f815250610c78565b1561050a576040517f08c379a000000000000000000000000000000000000000000000000000000000815260040161050190611656565b60405180910390fd5b5f8160ff161161054f576040517f08c379a0000000000000000000000000000000000000000000000000000000008152600401610546906116e4565b60405180910390fd5b5f5f858560405161056192919061123b565b908152602001604051809103902060010160019054906101000a900460ff1660ff16036105c4576001848490918060018154018082558091505060019003905f5260205f20015f9091929091929091929091925091826105c2929190611936565b505b5f604051806060016040528086868080601f0160208091040260200160405190810160405280939291908181526020018383808284375f81840152601f19601f8201169050808301925050505050505081526020018460ff1681526020018360ff168152509050805f868660405161063d92919061123b565b90815260200160405180910390205f820151815f01908161065e9190611a03565b506020820151816001015f6101000a81548160ff021916908360ff16021790555060408201518160010160016101000a81548160ff021916908360ff1602179055509050507f84cd380e45c2e12dd217628144d89aa43486bf2fbfde69b797d635e4875b3d67816040516106d291906111ac565b60405180910390a15050505050565b60025f9054906101000a900473ffffffffffffffffffffffffffffffffffffffff1673ffffffffffffffffffffffffffffffffffffffff163373ffffffffffffffffffffffffffffffffffffffff1614610770576040517f08c379a0000000000000000000000000000000000000000000000000000000008152600401610767906115c8565b60405180910390fd5b5f5f838360405161078292919061123b565b908152602001604051809103902090505f8160010160019054906101000a900460ff1660ff16116107e8576040517f08c379a00000000000000000000000000000000000000000000000000000000081526004016107df90611b42565b60405180910390fd5b5f8160010160016101000a81548160ff021916908360ff160217905550505050565b5f60025f9054906101000a900473ffffffffffffffffffffffffffffffffffffffff1673ffffffffffffffffffffffffffffffffffffffff168260405161085090611b8d565b5f6040518083038185875af1925050503d805f811461088a576040519150601f19603f3d011682016040523d82523d5f602084013e61088f565b606091505b50509050806108d3576040517f08c379a00000000000000000000000000000000000000000000000000000000081526004016108ca90611beb565b60405180910390fd5b5050565b60606001805480602002602001604051908101604052809291908181526020015f905b828210156109a2578382905f5260205f2001805461091790611766565b80601f016020809104026020016040519081016040528092919081815260200182805461094390611766565b801561098e5780601f106109655761010080835404028352916020019161098e565b820191905f5260205f20905b81548152906001019060200180831161097157829003601f168201915b5050505050815260200190600101906108fa565b50505050905090565b5f6109b4610cd0565b90505f815f0160089054906101000a900460ff161590505f825f015f9054906101000a900467ffffffffffffffff1690505f5f8267ffffffffffffffff161480156109fc5750825b90505f60018367ffffffffffffffff16148015610a2f57505f3073ffffffffffffffffffffffffffffffffffffffff163b145b905081158015610a3d575080155b15610a74576040517ff92ee8a900000000000000000000000000000000000000000000000000000000815260040160405180910390fd5b6001855f015f6101000a81548167ffffffffffffffff021916908367ffffffffffffffff1602179055508315610ac1576001855f0160086101000a81548160ff0219169083151502179055505b8560025f6101000a81548173ffffffffffffffffffffffffffffffffffffffff021916908373ffffffffffffffffffffffffffffffffffffffff1602179055508315610b5b575f855f0160086101000a81548160ff0219169083151502179055507fc7f505b2f371ae2175ee4913f4499e1f2633a7b5936321eed1cdaeb6115181d26001604051610b529190611c55565b60405180910390a15b505050505050565b610b6b610d0c565b5f8383604051610b7c92919061123b565b90815260200160405180910390206040518060600160405290815f82018054610ba490611766565b80601f0160208091040260200160405190810160405280929190818152602001828054610bd090611766565b8015610c1b5780601f10610bf257610100808354040283529160200191610c1b565b820191905f5260205f20905b815481529060010190602001808311610bfe57829003601f168201915b50505050508152602001600182015f9054906101000a900460ff1660ff1660ff1681526020016001820160019054906101000a900460ff1660ff1660ff1681525050905092915050565b600260149054906101000a900460ff1681565b5f81604051602001610c8a9190611c9e565b6040516020818303038152906040528051906020012083604051602001610cb19190611c9e565b6040516020818303038152906040528051906020012014905092915050565b5f5f610cda610ce3565b90508091505090565b5f7ff0c57e16840df040f15088dc2f81fe391c3923bec73e23a9662efc9c229c6a005f1b905090565b6040518060600160405280606081526020015f60ff1681526020015f60ff1681525090565b5f5ffd5b5f5ffd5b5f5ffd5b5f5ffd5b5f5ffd5b5f5f83601f840112610d5a57610d59610d39565b5b8235905067ffffffffffffffff811115610d7757610d76610d3d565b5b602083019150836001820283011115610d9357610d92610d41565b5b9250929050565b5f60ff82169050919050565b610daf81610d9a565b8114610db9575f5ffd5b50565b5f81359050610dca81610da6565b92915050565b5f5f5f60408486031215610de757610de6610d31565b5b5f84013567ffffffffffffffff811115610e0457610e03610d35565b5b610e1086828701610d45565b93509350506020610e2386828701610dbc565b9150509250925092565b5f73ffffffffffffffffffffffffffffffffffffffff82169050919050565b5f610e5682610e2d565b9050919050565b610e6681610e4c565b82525050565b5f602082019050610e7f5f830184610e5d565b92915050565b5f5f5f5f60608587031215610e9d57610e9c610d31565b5b5f85013567ffffffffffffffff811115610eba57610eb9610d35565b5b610ec687828801610d45565b94509450506020610ed987828801610dbc565b9250506040610eea87828801610dbc565b91505092959194509250565b5f5f60208385031215610f0c57610f0b610d31565b5b5f83013567ffffffffffffffff811115610f2957610f28610d35565b5b610f3585828601610d45565b92509250509250929050565b5f819050919050565b610f5381610f41565b8114610f5d575f5ffd5b50565b5f81359050610f6e81610f4a565b92915050565b5f60208284031215610f8957610f88610d31565b5b5f610f9684828501610f60565b91505092915050565b5f81519050919050565b5f82825260208201905092915050565b5f819050602082019050919050565b5f81519050919050565b5f82825260208201905092915050565b8281835e5f83830152505050565b5f601f19601f8301169050919050565b5f61100a82610fc8565b6110148185610fd2565b9350611024818560208601610fe2565b61102d81610ff0565b840191505092915050565b5f6110438383611000565b905092915050565b5f602082019050919050565b5f61106182610f9f565b61106b8185610fa9565b93508360208202850161107d85610fb9565b805f5b858110156110b857848403895281516110998582611038565b94506110a48361104b565b925060208a01995050600181019050611080565b50829750879550505050505092915050565b5f6020820190508181035f8301526110e28184611057565b905092915050565b5f6110f482610e2d565b9050919050565b611104816110ea565b811461110e575f5ffd5b50565b5f8135905061111f816110fb565b92915050565b5f6020828403121561113a57611139610d31565b5b5f61114784828501611111565b91505092915050565b61115981610d9a565b82525050565b5f606083015f8301518482035f8601526111798282611000565b915050602083015161118e6020860182611150565b5060408301516111a16040860182611150565b508091505092915050565b5f6020820190508181035f8301526111c4818461115f565b905092915050565b5f8115159050919050565b6111e0816111cc565b82525050565b5f6020820190506111f95f8301846111d7565b92915050565b5f81905092915050565b828183375f83830152505050565b5f61122283856111ff565b935061122f838584611209565b82840190509392505050565b5f611247828486611217565b91508190509392505050565b5f82825260208201905092915050565b7f6275794672756974203a20667275697420726571756573746564206e6f7420615f8201527f7661696c61626c65000000000000000000000000000000000000000000000000602082015250565b5f6112bd602883611253565b91506112c882611263565b604082019050919050565b5f6020820190508181035f8301526112ea816112b1565b9050919050565b7f6275794672756974203a205468657265206973206e6f7420656e6f75676820665f8201527f727569742c2063616e6e6f74206769766520796f75206173206d616e7920617360208201527f2072657175657374656400000000000000000000000000000000000000000000604082015250565b5f611371604a83611253565b915061137c826112f1565b606082019050919050565b5f6020820190508181035f83015261139e81611365565b9050919050565b7f4e487b71000000000000000000000000000000000000000000000000000000005f52601160045260245ffd5b5f6113dc82610d9a565b91506113e783610d9a565b92508282026113f581610d9a565b9150808214611407576114066113a5565b5b5092915050565b7f6275794672756974203a20696e73756666696369656e742066756e647320746f5f8201527f206275792074686973207175616e746974790000000000000000000000000000602082015250565b5f611468603283611253565b91506114738261140e565b604082019050919050565b5f6020820190508181035f8301526114958161145c565b9050919050565b5f6114a682610d9a565b91506114b183610d9a565b9250828203905060ff8111156114ca576114c96113a5565b5b92915050565b6114d9816110ea565b82525050565b5f6114ea8385611253565b93506114f7838584611209565b61150083610ff0565b840190509392505050565b61151481610d9a565b82525050565b5f60608201905061152d5f8301876114d0565b81810360208301526115408185876114df565b905061154f604083018461150b565b95945050505050565b7f4f6e6c79206f776e65722063616e2061636365737320746869732066756e63745f8201527f696f6e0000000000000000000000000000000000000000000000000000000000602082015250565b5f6115b2602383611253565b91506115bd82611558565b604082019050919050565b5f6020820190508181035f8301526115df816115a6565b9050919050565b7f757064617465436174616c6f673a20667275697473206d7573742068617665205f8201527f6e616d6573000000000000000000000000000000000000000000000000000000602082015250565b5f611640602583611253565b915061164b826115e6565b604082019050919050565b5f6020820190508181035f83015261166d81611634565b9050919050565b7f757064617465436174616c6f673a2063616e6e6f7420616464203020667275695f8201527f7400000000000000000000000000000000000000000000000000000000000000602082015250565b5f6116ce602183611253565b91506116d982611674565b604082019050919050565b5f6020820190508181035f8301526116fb816116c2565b9050919050565b5f82905092915050565b7f4e487b71000000000000000000000000000000000000000000000000000000005f52604160045260245ffd5b7f4e487b71000000000000000000000000000000000000000000000000000000005f52602260045260245ffd5b5f600282049050600182168061177d57607f821691505b6020821081036117905761178f611739565b5b50919050565b5f819050815f5260205f209050919050565b5f6020601f8301049050919050565b5f82821b905092915050565b5f600883026117f27fffffffffffffffffffffffffffffffffffffffffffffffffffffffffffffffff826117b7565b6117fc86836117b7565b95508019841693508086168417925050509392505050565b5f819050919050565b5f61183761183261182d84610f41565b611814565b610f41565b9050919050565b5f819050919050565b6118508361181d565b61186461185c8261183e565b8484546117c3565b825550505050565b5f5f905090565b61187b61186c565b611886818484611847565b505050565b5b818110156118a95761189e5f82611873565b60018101905061188c565b5050565b601f8211156118ee576118bf81611796565b6118c8846117a8565b810160208510156118d7578190505b6118eb6118e3856117a8565b83018261188b565b50505b505050565b5f82821c905092915050565b5f61190e5f19846008026118f3565b1980831691505092915050565b5f61192683836118ff565b9150826002028217905092915050565b6119408383611702565b67ffffffffffffffff8111156119595761195861170c565b5b6119638254611766565b61196e8282856118ad565b5f601f83116001811461199b575f8415611989578287013590505b611993858261191b565b8655506119fa565b601f1984166119a986611796565b5f5b828110156119d0578489013582556001820191506020850194506020810190506119ab565b868310156119ed57848901356119e9601f8916826118ff565b8355505b6001600288020188555050505b50505050505050565b611a0c82610fc8565b67ffffffffffffffff811115611a2557611a2461170c565b5b611a2f8254611766565b611a3a8282856118ad565b5f60209050601f831160018114611a6b575f8415611a59578287015190505b611a63858261191b565b865550611aca565b601f198416611a7986611796565b5f5b82811015611aa057848901518255600182019150602085019450602081019050611a7b565b86831015611abd5784890151611ab9601f8916826118ff565b8355505b6001600288020188555050505b505050505050565b7f72656d6f76654672756974203a206672756974206e6f7420696e20636174616c5f8201527f6f67000000000000000000000000000000000000000000000000000000000000602082015250565b5f611b2c602283611253565b9150611b3782611ad2565b604082019050919050565b5f6020820190508181035f830152611b5981611b20565b9050919050565b5f81905092915050565b50565b5f611b785f83611b60565b9150611b8382611b6a565b5f82019050919050565b5f611b9782611b6d565b9150819050919050565b7f4661696c656420746f2073656e642045746865720000000000000000000000005f82015250565b5f611bd5601483611253565b9150611be082611ba1565b602082019050919050565b5f6020820190508181035f830152611c0281611bc9565b9050919050565b5f819050919050565b5f67ffffffffffffffff82169050919050565b5f611c3f611c3a611c3584611c09565b611814565b611c12565b9050919050565b611c4f81611c25565b82525050565b5f602082019050611c685f830184611c46565b92915050565b5f611c7882610fc8565b611c8281856111ff565b9350611c92818560208601610fe2565b80840191505092915050565b5f611ca98284611c6e565b91508190509291505056fea26469706673582212205e21eae3783a724a48260710af9523ff7092dec4c4fc6fc5fb9c98553d6f5b5864736f6c634300081c0033",
  "linkReferences": {},
  "deployedLinkReferences": {},
  "immutableReferences": {},
  "inputSourceName": "project/contracts/FruitMarket.sol",
  "buildInfoId": "solc-0_8_28-951119e5fb11157367b7a9e19b86677fcc895d3b"
}