{
  "_format": "hh3-artifact-1",
  "contractName": "FruitMarketV2",
  "sourceName": "contracts/FruitMarketV2.sol",
  "abi": [
    {
      "inputs": [],
      "name": "InvalidInitialization",
      "type": "error"
    },
    {
      "inputs": [],
      "name": "NotInitializing",
      "type": "error"
    },
    {
      "anonymous": false,
      "inputs": [
        {
          "indexed": false,
          "internalType": "uint64",
          "name": "version",
          "type": "uint64"
        }
      ],
      "name": "Initialized",
      "type": "event"
    },
    {
      "anonymous": false,
      "inputs": [
        {
          "indexed": false,
          "internalType": "string",
          "name": "fruitName",
          "type": "string"
        }
      ],
      "name": "deleteFruit",
      "type": "event"
    },
    {
      "anonymous": false,
      "inputs": [
        {
          "indexed": false,
          "internalType": "address",
          "name": "sender",
          "type": "address"
        },
        {
          "indexed": false,
          "internalType": "string",
          "name": "fruitName",
          "type": "string"
        },
        {
          "indexed": false,
          "internalType": "uint8",
          "name": "quantity",
          "type": "uint8"
        }
      ],
      "name": "fruitBought",
      "type": "event"
    },
    {
      "anonymous": false,
      "inputs": [
        {
          "indexed": false,
          "internalType": "address",
          "name": "sender",
          "type": "address"
        },
        {
          "components": [
            {
              "internalType": "string",
              "name": "name",
              "type": "string"
            },
            {
              "internalType": "uint8",
              "name": "quantity",
              "type": "uint8"
            }
          ],
          "indexed": false,
          "internalType": "struct FruitOrder[]",
          "name": "fruitList",
          "type": "tuple[]"
        }
      ],
      "name": "fruitListBought",
      "type": "event"
    },
    {
      "anonymous": false,
      "inputs": [
        {
          "components": [
            {
              "internalType": "string",
              "name": "name",
              "type": "string"
            },
            {
              "internalType": "uint8",
              "name": "price",
              "type": "uint8"
            },
            {
              "internalType": "uint8",
              "name": "quantity",
              "type": "uint8"
            }
          ],
          "indexed": false,
          "internalType": "struct Fruit",
          "name": "fruit",
          "type": "tuple"
        }
      ],
      "name": "update",
      "type": "event"
    },
    {
      "inputs": [
        {
          "internalType": "string",
          "name": "fruitName",
          "type": "string"
        },
        {
          "internalType": "uint8",
          "name": "quantity",
          "type": "uint8"
        }
      ],
      "name": "buyFruit",
      "outputs": [],
      "stateMutability": "payable",
      "type": "function"
    },
    {
      "inputs": [
        {
          "components": [
            {
              "internalType": "string",
              "name": "name",
              "type": "string"
            },
            {
              "internalType": "uint8",
              "name": "quantity",
              "type": "uint8"
            }
          ],
          "internalType": "struct FruitOrder[]",
          "name": "fruitList",
          "type": "tuple[]"
        }
      ],
      "name": "buyFruitList",
      "outputs": [],
      "stateMutability": "payable",
      "type": "function"
    },
    {
      "inputs": [],
      "name": "getAvailableFruitsList",
      "outputs": [
        {
          "internalType": "string[]",
          "name": "",
          "type": "string[]"
        }
      ],
      "stateMutability": "view",
      "type": "function"
    },
    {
      "inputs": [
        {
          "internalType": "string",
          "name": "fruitName",
          "type": "string"
        }
      ],
      "name": "getFruit",
      "outputs": [
        {
          "components": [
            {
              "internalType": "string",
              "name": "name",
              "type": "string"
            },
            {
              "internalType": "uint8",
              "name": "price",
              "type": "uint8"
            },
            {
              "internalType": "uint8",
              "name": "quantity",
              "type": "uint8"
            }
          ],
          "internalType": "struct Fruit",
          "name": "",
          "type": "tuple"
        }
      ],
      "stateMutability": "view",
      "type": "function"
    },
    {
      "inputs": [
        {
          "internalType": "address",
          "name": "_owner",
          "type": "address"
        }
      ],
      "name": "initialize",
      "outputs": [],
      "stateMutability": "nonpayable",
      "type": "function"
    },
    {
      "inputs": [],
      "name": "locked",
      "outputs": [
        {
          "internalType": "bool",
          "name": "",
          "type": "bool"
        }
      ],
      "stateMutability": "view",
      "type": "function"
    },
    {
      "inputs": [],
      "name": "owner",
      "outputs": [
        {
          "internalType": "address payable",
          "name": "",
          "type": "address"
        }
      ],
      "stateMutability": "view",
      "type": "function"
    },
    {
      "inputs": [
        {
          "internalType": "uint256",
          "name": "_amount",
          "type": "uint256"
        }
      ],
      "name": "pay",
      "outputs": [],
      "stateMutability": "nonpayable",
      "type": "function"
    },
    {
      "inputs": [
        {
          "internalType": "string",
          "name": "name",
          "type": "string"
        }
      ],
      "name": "removeFruit",
      "outputs": [],
      "stateMutability": "nonpayable",
      "type": "function"
    },
    {
      "inputs": [
        {
          "internalType": "string",
          "name": "name",
          "type": "string"
        },
        {
          "internalType": "uint8",
          "name": "price",
          "type": "uint8"
        },
        {
          "internalType": "uint8",
          "name": "quantity",
          "type": "uint8"
        }
      ],
      "name": "updateCatalog",
      "outputs": [],
      "stateMutability": "nonpayable",
      "type": "function"
    }
  ],
  "bytecode": "0x6080604052348015600e575f5ffd5b506117bb8061001c5f395ff3fe60806040526004361061008f575f3560e01c8063c290d69111610057578063c290d69114610135578063c379ff5014610154578063c4d66de814610175578063c8ba220814610194578063cf309012146101c0575f5ffd5b80630437f91f146100935780633f75d531146100a85780638da5cb5b146100bb5780639385f95b146100f7578063b11a866314610116575b5f5ffd5b6100a66100a1366004610fe0565b6101f0565b005b6100a66100b6366004611030565b610424565b3480156100c6575f5ffd5b506002546100da906001600160a01b031681565b6040516001600160a01b0390911681526020015b60405180910390f35b348015610102575f5ffd5b506100a66101113660046110a1565b610819565b348015610121575f5ffd5b506100a6610130366004611102565b610a94565b348015610140575f5ffd5b506100a661014f366004611141565b610b91565b34801561015f575f5ffd5b50610168610c2c565b6040516100ee9190611186565b348015610180575f5ffd5b506100a661018f3660046111e9565b610d00565b34801561019f575f5ffd5b506101b36101ae366004611102565b610e0b565b6040516100ee9190611216565b3480156101cb575f5ffd5b506002546101e090600160a01b900460ff1681565b60405190151581526020016100ee565b5f5f8484604051610202929190611257565b908152604051908190036020019020600181015490915060ff610100909104165f036102865760405162461bcd60e51b815260206004820152602860248201527f6275794672756974203a20667275697420726571756573746564206e6f7420616044820152677661696c61626c6560c01b60648201526084015b60405180910390fd5b600181015460ff80841661010090920416101561031e5760405162461bcd60e51b815260206004820152604a60248201527f6275794672756974203a205468657265206973206e6f7420656e6f756768206660448201527f727569742c2063616e6e6f74206769766520796f75206173206d616e79206173606482015269081c995c5d595cdd195960b21b608482015260a40161027d565b60018101545f906103329060ff168461127a565b60ff169050803410156103a25760405162461bcd60e51b815260206004820152603260248201527f6275794672756974203a20696e73756666696369656e742066756e647320746f604482015271206275792074686973207175616e7469747960701b606482015260840161027d565b6103ab81610b91565b600182810180548592906103c8908490610100900460ff1661129d565b92506101000a81548160ff021916908360ff1602179055507fc3e43f530f60320e613fed8164f7a02992964d2ef16d90fc5ad692b6b9eebf613386868660405161041594939291906112de565b60405180910390a15050505050565b600254600160a01b900460ff161561046e5760405162461bcd60e51b815260206004820152600d60248201526c4e6f207265656e7472616e637960981b604482015260640161027d565b6002805460ff60a01b1916600160a01b179055806104de5760405162461bcd60e51b815260206004820152602760248201527f62757946727569744c697374203a206c6973742073686f756c64206e6f7420626044820152666520656d70747960c81b606482015260840161027d565b5f805b82811015610695575f5f8585848181106104fd576104fd611316565b905060200281019061050f919061132a565b6105199080611348565b604051610527929190611257565b908152604051908190036020019020600181015490915060ff610100909104165f036105a05760405162461bcd60e51b815260206004820152602260248201527f62757946727569744c697374203a204672756974206e6f7420617661696c61626044820152616c6560f01b606482015260840161027d565b8484838181106105b2576105b2611316565b90506020028101906105c4919061132a565b6105d590604081019060200161138b565b600182015460ff91821661010090910490911610156106365760405162461bcd60e51b815260206004820152601f60248201527f62757946727569744c697374203a204e6f7420656e6f7567682073746f636b00604482015260640161027d565b600181015460ff1685858481811061065057610650611316565b9050602002810190610662919061132a565b61067390604081019060200161138b565b61067d919061127a565b61068a9060ff16846113a4565b9250506001016104e1565b50803410156106f05760405162461bcd60e51b815260206004820152602160248201527f62757946727569744c697374203a20496e73756666696369656e742066756e646044820152607360f81b606482015260840161027d565b6106f981610b91565b5f5b828110156107cb575f5f85858481811061071757610717611316565b9050602002810190610729919061132a565b6107339080611348565b604051610741929190611257565b9081526020016040518091039020905084848381811061076357610763611316565b9050602002810190610775919061132a565b61078690604081019060200161138b565b8160010160018282829054906101000a900460ff166107a5919061129d565b92506101000a81548160ff021916908360ff1602179055505080806001019150506106fb565b507fa8ced77c9185226b14ef664c2f57184fa0b2de65abfcf9069a1bf00ff1cac5c83384846040516107ff939291906113b7565b60405180910390a150506002805460ff60a01b1916905550565b6002546001600160a01b031633146108435760405162461bcd60e51b815260040161027d90611498565b61088f84848080601f0160208091040260200160405190810160405280939291908181526020018383808284375f92018290525060408051602081019091529081529250610f06915050565b156108ea5760405162461bcd60e51b815260206004820152602560248201527f757064617465436174616c6f673a20667275697473206d7573742068617665206044820152646e616d657360d81b606482015260840161027d565b5f8160ff16116109465760405162461bcd60e51b815260206004820152602160248201527f757064617465436174616c6f673a2063616e6e6f7420616464203020667275696044820152601d60fa1b606482015260840161027d565b5f8484604051610957929190611257565b9081526040519081900360200190206001015460ff610100909104165f036109b6576001805480820182555f919091527fb10e2d527612073b26eecdfd717e6a320cf44b4afac2b0732d9fcbe2b7fa0cf6016109b4848683611573565b505b6040805160806020601f87018190040282018101909252606081018581525f9282919088908890819085018382808284375f92018290525093855250505060ff8087166020840152851660409283015290519192508291610a1a9088908890611257565b90815260405190819003602001902081518190610a37908261162d565b5060208201516001909101805460409384015160ff9081166101000261ffff19909216931692909217919091179055517f84cd380e45c2e12dd217628144d89aa43486bf2fbfde69b797d635e4875b3d6790610415908390611216565b6002546001600160a01b03163314610abe5760405162461bcd60e51b815260040161027d90611498565b5f5f8383604051610ad0929190611257565b908152604051908190036020019020600181015490915060ff61010090910416610b475760405162461bcd60e51b815260206004820152602260248201527f72656d6f76654672756974203a206672756974206e6f7420696e20636174616c6044820152616f6760f01b606482015260840161027d565b60018101805461ff00191690556040517fcc8cdff538729aeecc923b079101ecf5055b3812c89c1430c2f5eba0aa11769790610b849083906116e8565b60405180910390a1505050565b6002546040515f916001600160a01b03169083908381818185875af1925050503d805f8114610bdb576040519150601f19603f3d011682016040523d82523d5f602084013e610be0565b606091505b5050905080610c285760405162461bcd60e51b81526020600482015260146024820152732330b4b632b2103a379039b2b7321022ba3432b960611b604482015260640161027d565b5050565b60606001805480602002602001604051908101604052809291908181526020015f905b82821015610cf7578382905f5260205f20018054610c6c906114ef565b80601f0160208091040260200160405190810160405280929190818152602001828054610c98906114ef565b8015610ce35780601f10610cba57610100808354040283529160200191610ce3565b820191905f5260205f20905b815481529060010190602001808311610cc657829003601f168201915b505050505081526020019060010190610c4f565b50505050905090565b5f610d09610f5e565b805490915060ff600160401b820416159067ffffffffffffffff165f81158015610d305750825b90505f8267ffffffffffffffff166001148015610d4c5750303b155b905081158015610d5a575080155b15610d785760405163f92ee8a960e01b815260040160405180910390fd5b845467ffffffffffffffff191660011785558315610da257845460ff60401b1916600160401b1785555b600280546001600160a01b0319166001600160a01b0388161790558315610e0357845460ff60401b19168555604051600181527fc7f505b2f371ae2175ee4913f4499e1f2633a7b5936321eed1cdaeb6115181d29060200160405180910390a15b505050505050565b604080516060808201835281525f60208201819052918101919091525f8383604051610e38929190611257565b90815260200160405180910390206040518060600160405290815f82018054610e60906114ef565b80601f0160208091040260200160405190810160405280929190818152602001828054610e8c906114ef565b8015610ed75780601f10610eae57610100808354040283529160200191610ed7565b820191905f5260205f20905b815481529060010190602001808311610eba57829003601f168201915b50505091835250506001919091015460ff80821660208401526101009091041660409091015290505b92915050565b5f81604051602001610f18919061176f565b6040516020818303038152906040528051906020012083604051602001610f3f919061176f565b6040516020818303038152906040528051906020012014905092915050565b5f807ff0c57e16840df040f15088dc2f81fe391c3923bec73e23a9662efc9c229c6a00610f00565b5f5f83601f840112610f96575f5ffd5b50813567ffffffffffffffff811115610fad575f5ffd5b602083019150836020828501011115610fc4575f5ffd5b9250929050565b803560ff81168114610fdb575f5ffd5b919050565b5f5f5f60408486031215610ff2575f5ffd5b833567ffffffffffffffff811115611008575f5ffd5b61101486828701610f86565b9094509250611027905060208501610fcb565b90509250925092565b5f5f60208385031215611041575f5ffd5b823567ffffffffffffffff811115611057575f5ffd5b8301601f81018513611067575f5ffd5b803567ffffffffffffffff81111561107d575f5ffd5b8560208260051b8401011115611091575f5ffd5b6020919091019590945092505050565b5f5f5f5f606085870312156110b4575f5ffd5b843567ffffffffffffffff8111156110ca575f5ffd5b6110d687828801610f86565b90955093506110e9905060208601610fcb565b91506110f760408601610fcb565b905092959194509250565b5f5f60208385031215611113575f5ffd5b823567ffffffffffffffff811115611129575f5ffd5b61113585828601610f86565b90969095509350505050565b5f60208284031215611151575f5ffd5b5035919050565b5f81518084528060208401602086015e5f602082860101526020601f19601f83011685010191505092915050565b5f602082016020835280845180835260408501915060408160051b8601019250602086015f5b828110156111dd57603f198786030184526111c8858351611158565b945060209384019391909101906001016111ac565b50929695505050505050565b5f602082840312156111f9575f5ffd5b81356001600160a01b038116811461120f575f5ffd5b9392505050565b602081525f8251606060208401526112316080840182611158565b905060ff602085015116604084015260ff60408501511660608401528091505092915050565b818382375f9101908152919050565b634e487b7160e01b5f52601160045260245ffd5b60ff818116838216029081169081811461129657611296611266565b5092915050565b60ff8281168282160390811115610f0057610f00611266565b81835281816020850137505f828201602090810191909152601f909101601f19169091010190565b6001600160a01b03851681526060602082018190525f9061130290830185876112b6565b905060ff8316604083015295945050505050565b634e487b7160e01b5f52603260045260245ffd5b5f8235603e1983360301811261133e575f5ffd5b9190910192915050565b5f5f8335601e1984360301811261135d575f5ffd5b83018035915067ffffffffffffffff821115611377575f5ffd5b602001915036819003821315610fc4575f5ffd5b5f6020828403121561139b575f5ffd5b61120f82610fcb565b80820180821115610f0057610f00611266565b6001600160a01b038416815260406020820181905281018290525f6060600584901b830181019083018583603e1936839003015b8782101561148a57868503605f190184528235818112611409575f5ffd5b8901803536829003601e1901811261141f575f5ffd5b810160208101903567ffffffffffffffff81111561143b575f5ffd5b803603821315611449575f5ffd5b6040885261145b6040890182846112b6565b91505060ff61146c60208401610fcb565b166020978801529594850194939093019250600191909101906113eb565b509298975050505050505050565b60208082526023908201527f4f6e6c79206f776e65722063616e2061636365737320746869732066756e637460408201526234b7b760e91b606082015260800190565b634e487b7160e01b5f52604160045260245ffd5b600181811c9082168061150357607f821691505b60208210810361152157634e487b7160e01b5f52602260045260245ffd5b50919050565b601f82111561156e57805f5260205f20601f840160051c8101602085101561154c5750805b601f840160051c820191505b8181101561156b575f8155600101611558565b50505b505050565b67ffffffffffffffff83111561158b5761158b6114db565b61159f8361159983546114ef565b83611527565b5f601f8411600181146115d0575f85156115b95750838201355b5f19600387901b1c1916600186901b17835561156b565b5f83815260208120601f198716915b828110156115ff57868501358255602094850194600190920191016115df565b508682101561161b575f1960f88860031b161c19848701351681555b505060018560011b0183555050505050565b815167ffffffffffffffff811115611647576116476114db565b61165b8161165584546114ef565b84611527565b6020601f82116001811461168d575f83156116765750848201515b5f19600385901b1c1916600184901b17845561156b565b5f84815260208120601f198516915b828110156116bc578785015182556020948501946001909201910161169c565b50848210156116d957868401515f19600387901b60f8161c191681555b50505050600190811b01905550565b602081525f5f83546116f9816114ef565b806020860152600182165f8114611717576001811461173357611764565b60ff1983166040870152604082151560051b8701019350611764565b865f5260205f205f5b8381101561175b5781548882016040015260019091019060200161173c565b87016040019450505b509195945050505050565b5f82518060208501845e5f92019182525091905056fea2646970667358221220ee4292b4b5d68aea63de3790f2f7671acb939664933d87c92f8237a961c180de64736f6c634300081c0033",
  "linkReferences": {},
  "deployedLinkReferences": {},
  "immutableReferences": {},
  "inputSourceName": "project/contracts/FruitMarketV2.sol",
  "buildInfoId": "solc-0_8_28-b6b12acb3ca6f219530779aa82d99fbd6c2b58b7"
}